:020000040000FA
:060000000A128A11122809
:10000800FE00030E83120313A4000408A5000A08C7
:10001800A6007F08A7000A128A1147290A128A1126
:1000280015280A128A11EE260A128A11C5000A1228
:100038008A11EF260A128A11C6000A128A11F026BE
:100048000A128A11C7000A128A11F1260A128A11A5
:10005800C8000A128A11F2260A128A11C9000A1265
:100068008A11F3260A128A11CA000A128A11FA267C
:100078000A128A11FD00BD01BE01BF01C001C10104
:10008800C201C301C401FA01FB01FC0183010A1288
:100098008A114E280A128A11B8260A128A114E307D
:1000A8000A128A1137220A128A1183120313AE0127
:1000B800AE0A01300A128A114A250A128A11013041
:1000C8000A128A1121250A128A1183120313AE011A
:1000D800AE0A02300A128A114A250A128A1112300F
:1000E8000A128A1121250A128A110A128A118F26E8
:1000F8000A128A110A128A11D1260A128A110A12C0
:100108008A119D260A128A110A128A11F4240A12E7
:100118008A110A128A11F4260A128A110A128A11FD
:1001280006260A128A1183160313061386128312EF
:100138000313061786168316031305148610061173
:1001480083120313861083160313061400300A1251
:100158008A1180260A128A1183120313BB003B08F6
:10016800C10001300A128A1180260A128A118312EC
:100178000313BB003B08C00002300A128A11802614
:100188000A128A1183120313BB003B08BF004718E9
:10019800CE28D228831203130615D52883120313F9
:1001A800061100300A128A1111240A128A118312C8
:1001B80003132908AF002808AE000A128A113C264A
:1001C8000A128A11831203134803031DEC28ED2831
:1001D80035290A128A118F260A128A1183120313EB
:1001E800AE01AE0A01300A128A114A250A128A1192
:1001F80023300A128A1121250A128A110230831229
:100208000313BB003B08B2000230BC003C08B3003B
:1002180041080A128A11E4220A128A110230831252
:100228000313BB003B08B2000730BC003C08B30016
:1002380040080A128A11E4220A128A110230831233
:100248000313BB003B08B2000C30BC003C08B300F1
:100258003F080A128A11E4220A128A118312031330
:10026800C8014903031D39293A293F290830BB0031
:100278003B08FD00CB280E30BB003B08FD00CB2817
:100288000A128A1112280B1D4A294B298129063086
:1002980081000130A0002008FB077B087D06031DB4
:1002A8005629572961297C08031D5B295C295F2988
:1002B800403086066129203086060030A1007D087E
:1002C800C83CA000031CA1037B08A200A3012108CD
:1002D8002306031D712920082206031D7429752988
:1002E80080297C08031D79297A297D2940308606D2
:1002F8007F2920308606FB010B118B1C8429852958
:10030800A1294308031D89298A29A129C901003087
:10031800F600F7000A128A1156260A128A11831269
:100328000313C70133300A128A11C9250A128A1128
:1003380083120313C301C30A8B108C1EA429A52999
:100348002C2A1A08A0002008FA0061307A06031D3A
:10035800AE29AF29C929410A031DB329B429B529F2
:10036800C1010130A0002008C1074108A0002008F1
:10037800F00000300A128A1121260A128A11FC01A3
:1003880083120313C901C90A122A62307A06031DAF
:10039800CE29CF29E629400A031DD329D429D529F6
:1003A800C0010130A0002008C0074008A0002008B4
:1003B800F00001300A128A1121260A128A11FC0162
:1003C800FC0AC42963307A06031DEB29EC29122A9A
:1003D8003F0A031DF029F129F229BF010130A000CD
:1003E8002008BF073F08A0002008F00002300A12CA
:1003F8008A1121260A128A1183120313C9010030B7
:100408000A128A1166240A128A117108F700700804
:10041800F6000A128A1156260A128A118312031349
:10042800C701C70AC30100300A128A1166240A12DA
:100438008A117108F7007008F6000A128A11562608
:100448000A128A1183120313C801C80AFA018C120E
:100458002708FF0026088A0025088400240E830048
:10046800FE0E7E0E090083120313B1003108AE00A0
:100478002E08CB0000300A128A11AA250A128A1106
:10048800C33083120313AF00CC30AE00AE0B4A2A40
:10049800AF0B4A2A000003300A128A11E8250A1213
:1004A8008A11213083120313AF007530AE00AE0BF2
:1004B8005B2AAF0B5B2A602A03300A128A11E825EF
:1004C8000A128A11213083120313AF007530AE006F
:1004D800AE0B6C2AAF0B6C2A712A03300A128A11F0
:1004E800E8250A128A11213083120313AF007530F0
:1004F800AE00AE0B7D2AAF0B7D2A822A02300A128B
:100508008A11E8250A128A11213083120313AF00D9
:100518007530AE00AE0B8E2AAF0B8E2A932A283088
:100528000A128A11E8250A128A110230831203136B
:10053800B0004530AF00A930AE00AE0BA12AAF0B1A
:10054800A12AB00BA12A0C300A128A11E8250A1236
:100558008A11023083120313B0004530AF00A9306E
:10056800AE00AE0BB52AAF0BB52AB00BB52A0130D9
:100578000A128A11E8250A128A110230831203131B
:10058800B0004530AF00A930AE00AE0BC92AAF0BA2
:10059800C92AB00BC92A06300A128A11E8250A129C
:1005A8008A11023083120313B0004530AF00A9301E
:1005B800AE00AE0BDD2AAF0BDD2AB00BDD2A08003A
:1005C80083120313BA003308023EB4003408B9009A
:1005D8000230B4003408B7000A30A8000030A9007F
:1005E8003A08B400B5013408AA003508AB000A126D
:1005F8008A11B6230A128A11831203132808303E7F
:10060800B6003608B8003908B4003408AE0032081D
:100618000A128A114A250A128A118312031338080A
:100628000A128A116C250A128A11013083120313E7
:10063800B9020A30A8000030A9003A08B400B50190
:100648003408AA003508AB000A128A114D230A1291
:100658008A11831203132808B6003608BA003A082C
:10066800031D372B382B392B462B0130B702F02AC4
:1006780020300A128A116C250A128A11013083125D
:100688000313B9023308390203184B2B4C2B3C2BAC
:10069800080083120313AE01A91F532B542B5B2BA5
:1006A800A809A909A80A0319A90AAE01AE0AAB1F2D
:1006B8005E2B5F2B682BAA09AB09AA0A0319AB0AA0
:1006C8000130AC002C08AE06AF01B001280829049F
:1006D80003196F2B702BA72BAD01AD0A7E2B0130B0
:1006E8000310A80DA90DFF3E031D742B0130AC00AB
:1006F8002C08AD07A91F812B822B732B0130031007
:10070800AF0DB00DFF3E031D832B29082B02031DDF
:100718008F2B28082A02031C922B932B9A2B28082C
:10072800AA022908031CAB03AB022F1401300310E3
:10073800A90CA80CFF3E031D9B2B0130AD02031D25
:10074800A62BA72B822B2E080319AB2BAC2BB12B76
:10075800AF09B009AF0A0319B00A3008A9002F0879
:10076800A800080083120313AE01AB1FBC2BBD2BDE
:10077800C42BAA09AB09AA0A0319AB0AAE01AE0A2F
:10078800A91FC72BC82BCD2BA809A909A80A03198B
:10079800A90A280829040319D22BD32B022CAD014E
:1007A800AD0AE12B01300310A80DA90DFF3E031D72
:1007B800D72B0130AC002C08AD07A91FE42BE52B83
:1007C800D62B29082B02031DEB2B28082A02031C11
:1007D800EE2BEF2BF52B2808AA022908031CAB03E4
:1007E800AB0201300310A90CA80CFF3E031DF62B29
:1007F8000130AD02031D012C022CE52B2E08031934
:10080800062C072C0C2CAA09AB09AA0A0319AB0A57
:100818002B08A9002A08A800080083120313AD00BA
:1008280008302D02031C192C1A2C1D2CA801A90113
:10083800652C2D18202C242C831203139F15272C8C
:10084800831203139F112D08AA0001300310AA0C6C
:10085800FF3E031D2A2C2A18322C362C8312031330
:100868001F16392C831203131F122D08AA000230F9
:100878000310AA0CFF3E031D3C2C2A18442C482CBC
:10088800831203139F164B2C831203139F122830D5
:1008980083120313AA00AA0B4F2C522C83120313A2
:1008A8001F151F19582C592C552C1E08AC008316DF
:1008B80003131E0883120313AB002C08A9002B088E
:1008C800A8000800F50008307502031C6C2C6D2C7C
:1008D800702CF001F101B42C7518732C772C83124D
:1008E80003139F157A2C831203139F117508F200C6
:1008F80001300310F20CFF3E031D7D2C7218852C6D
:10090800892C831203131F168C2C831203131F12B6
:100918007508F20002300310F20CFF3E031D8F2C05
:100928007218972C9B2C831203139F169E2C8312EC
:1009380003139F122930F200F20BA02C000083123F
:1009480003131F151F19A92CAA2CA62C1E08F40086
:10095800831603131E08F3007408F1007308F000EF
:10096800080004308A000408840A8207003420340E
:100978002034203420345634493420345834553403
:1009880020344C345934203420342034203400347A
:10099800203420342034543441344E3420344D34FF
:1009A8004134493420344E3441344D3420342034D9
:1009B8000034203444344634533420342034493409
:1009C80032344334203420344334523443342034D2
:1009D800003463346834653463346B340A34003467
:1009E80083120313171597158316031307110A2D7E
:1009F80083120313121092101A2D83120313121468
:100A080092101A2D8312031392141A2D0030003AF3
:100A180003190F2D1A2D0130013A0319FC2C053A40
:100A28000319012D143A0319062D1A2D83121215D4
:100A3800F030831603139200080083120313B000EA
:100A4800AE01AF013C2D2E08300784000A128A112E
:100A5800B5240A128A110A128A116C250A128A11FF
:100A6800013083120313AE070318AF0A0030AF0733
:100A78002E08300784000A128A11B5240A128A1136
:100A8800003A031D482D492D272D08008312031312
:100A9800B1005E2D2E08BF3E0A128A11E8250A12FF
:100AA8008A116B2D2E087F3E0A128A11E8250A1238
:100AB8008A116B2D3108AF00B0013008003A0319D4
:100AC800662D562D2F08023A03194E2D562D080073
:100AD80083120313AD00C401C40A2D08F0390A12A9
:100AE8008A118B250A128A11831203132D08AC0070
:100AF80003300310AC0DFF3E031D7D2D03102C0D9C
:100B0800F0390A128A118B250A128A1108008312F9
:100B18000313AB004408AA002A08AB042B080438C6
:100B28000A128A11AA250A128A11831203132B08A2
:100B3800FB390A128A11AA250A128A115230831225
:100B48000313AA00AA0BA62D0000080083120313A2
:100B5800A9000A128A11E5260A128A1183120313C0
:100B68004B080A128A116E260A128A11831203137D
:100B780029084A040A128A116E260A128A110A12D0
:100B88008A11DC260A128A110800F200DB2D72088D
:100B980084000A128A11B5240A128A110A128A11CB
:100BA800C5260A128A110130F1007108F20772088D
:100BB80084000A128A11B5240A128A11003A031D08
:100BC800E62DE72DCB2D080083120313AD00C401D9
:100BD8002D08F0390A128A118B250A128A118312FC
:100BE80003132D08AC0003300310AC0DFF3E031DAA
:100BF800F82D03102C0DF0390A128A118B250A12D0
:100C08008A110800831603131815813099001812E9
:100C18008312031398178316031307178717981659
:100C2800831203131816831603138C160B178B17CE
:100C380018138312031318130800F10083160317FF
:100C48008C18272E282E222E7108831203178D0048
:100C580070088C00831603178C130C158B135530F2
:100C68008D00AA308D008C148B170C118C10080085
:100C7800831203132E18412E452E831203131716C1
:100C8800482E83120313171297122F08B1002E084B
:100C9800B0000310B10CB00C0310B10CB00C30084C
:100CA800950008007618592E5D2E83120313171627
:100CB800602E83120313171297127708F90076082B
:100CC800F8000310F90CF80C0310F90CF80C78086C
:100CD8009500080083120313A8000A128A11AB2694
:100CE8000A128A1183120313280893008C1D7D2E83
:100CF8007E2E7A2E8C11080083120313A800280870
:100D0800831203178D00831603178C130C14831298
:100D180003170C08080001300A128A11E8250A1284
:100D28008A11413083120313AE00AE0B992E9C2E0C
:100D38000800831203131F179F131F14831603132E
:100D48009F171F171F109F101F119F110800831650
:100D580003131419B02EB12EAB2E11081F39031D21
:100D6800B62EB72EAB2E080028308312031394003A
:100D780083160313910194013130930087150716E8
:100D88000800F00083160313981CCB2ECC2EC62E19
:100D98007008831203139900080083160313811146
:100DA80001118110011081128B178B160B1108008D
:100DB8000A128A11AB260A128A1183160313111517
:100DC80008000A128A11AB260A128A118316031325
:100DD80011140800803425340134013401340834F6
:0E0DE8008316031301170B168B170800023435
:02400E003A3F37
:00000001FF
