:020000040000FA
:060000000A128A11122809
:10000800FE00030E83120313A1000408A2000A08CD
:10001800A3007F08A4000A128A11FF280A128A1175
:1000280015280A128A1154230A128A11B6000A12D4
:100038008A1155230A128A11B7000A128A11562307
:100048000A128A11B800B201B301B401B501FA016C
:10005800FB01FC01FD0183010A128A1133280A12EF
:100068008A112D230A128A110A128A1147220A12AA
:100078008A110A128A11B6220A128A1100300A124B
:100088008A111E230A128A1183120313AF002F0844
:10009800B20001300A128A111E230A128A11831231
:1000A8000313AF002F08FB0002300A128A111E2327
:1000B8000A128A1183120313AF002F08FA0083165D
:1000C80003130C14831203130C108E018F0190106C
:1000D80010129012BE308F00E4308E001014831678
:1000E8000313061405148711871201170B168B17B3
:1000F8000814851105128512831203138515051638
:10010800851683160313061286128312031306122A
:100118008612831203133818922896288312031321
:100128008716992883120313871200300A128A113E
:10013800A3210A128A11831203132608AC0025088A
:10014800AB000A128A11EC220A128A1183120313D5
:100158008818AF28B028D4288616033083120313D2
:10016800B1008A30B0005530AF00AF0BB928B00BE2
:10017800B928B10BB92883120313881CC428C528D1
:10018800D5280130AF002F08B2073208AF002F087A
:10019800A50002300A128A1174220A128A11D5287F
:1001A8008612831203130819DA28DB288D280330F6
:1001B80083120313B1008A30B0005530AF00AF0B83
:1001C800E328B00BE328B10BE32883120313081DBF
:1001D800EE28EF288D280130B2023208AF002F0830
:1001E800A50002300A128A1174220A128A118D2877
:1001F8000A128A1112280C1C02290329132901301A
:10020800A0002008FD073C307D06031D0C290D29A0
:100218000E29FD01FD308F00E8308E000C108B1C7C
:100228001629172929290030F600F7000A128A1121
:1002380006230A128A1183120313B80101300A1225
:100248008A1197220A128A118B10831203138C1EAB
:100258002E292F2998291A08A0002008FC006130AF
:100268007C06031D3829392951290130A0002008AE
:10027800B2073208A0002008F00000300A128A11E4
:10028800D1220A128A1183120313B501B50AB401E7
:10029800FD308F00E8308E00832962307C06031D14
:1002A800562957296B290130A0002008FB077B0835
:1002B800A0002008F00001300A128A11D1220A1287
:1002C8008A1183120313B501B401B40A4C296330AF
:1002D8007C06031D7029712983290130A00020089C
:1002E800FA077A08A0002008F00002300A128A11E2
:1002F800D1220A128A1183120313B501B401B8017D
:10030800B80A00300A128A11F8210A128A117108F3
:10031800F7007008F6000A128A1106230A128A11D9
:10032800FC01831203138C122408FF0023088A009F
:1003380022088400210E8300FE0E7E0E090083121F
:100348000313AA0008302A02031CAB29AC29AF29E1
:10035800A501A601F7292A18B229B6298312031381
:100368009F15B929831203139F112A08A70001308A
:100378000310A70CFF3E031DBC292718C429C82950
:10038800831203131F16CB29831203131F122A0883
:10039800A70002300310A70CFF3E031DCE29271823
:1003A800D629DA29831203139F16DD298312031332
:1003B8009F12283083120313A700A70BE129E42911
:1003C800831203131F151F19EA29EB29E7291E08B1
:1003D800A900831603131E0883120313A800290813
:1003E800A6002808A5000800F50008307502031CBF
:1003F800FE29FF29022AF001F101462A7518052A6B
:10040800092A831203139F150C2A831203139F11C1
:100418007508F20001300310F20CFF3E031D0F2A8D
:100428007218172A1B2A831203131F161E2A8312F7
:1004380003131F127508F20002300310F20CFF3E7E
:10044800031D212A7218292A2D2A831203139F16A5
:10045800302A831203139F122930F200F20B322A3A
:100468000000831203131F151F193B2A3C2A382A40
:100478001E08F400831603131E08F3007408F10025
:100488007308F000080083120313171597158316D5
:10049800031307115D2A83120313121092106D2A99
:1004A80083120313121492106D2A831203139210ED
:1004B8006D2A0030003A0319622A6D2A0130013A88
:1004C80003194F2A053A0319542A143A0319592AC9
:1004D8006D2A83121215F030831603139200080058
:1004E80083120313A600831603178C187C2A7D2A0F
:1004F800772A831203132608831203178D008312A9
:1005080003132508831203178C00831603178C1313
:100518000C158B1355308D00AA308D008C148B1759
:100528000C118C100800F200A92A720884000A1223
:100538008A113B230A128A110A128A1148230A12C5
:100548008A110130F1007108F207720884000A125A
:100558008A113B230A128A11003A031DB42AB52ACC
:10056800992A080083160313181581309900181268
:100578008312031398178316031307178717981600
:10058800831203131816831603138C160B178B1775
:1005980018138312031318130800F10083160317A6
:1005A8008C18D72AD82AD22A7108831203178D00EB
:1005B80070088C00831603178C130C158B13553099
:1005C8008D00AA308D008C148B170C118C1008002C
:1005D800831203132B18F12AF52A83120313171613
:1005E800F82A83120313171297122C08AE002B084F
:1005F800AD000310AE0CAD0C0310AE0CAD0C2D0805
:10060800950008007618092B0D2B83120313171673
:10061800102B83120313171297127708F900760824
:10062800F8000310F90CF80C0310F90CF80C780812
:100638009500080083120313A500250883120317E9
:100648008D00831603178C130C14831203170C08E0
:100658000800831203131F179F131F148316031315
:100668009F171F171F109F101F119F11080003309D
:100678008A000408840A82070034633468346534C5
:1006880063346B340A340034F00083160313981C67
:100698004E2B4F2B492B7008831203139900080027
:0606A8008034253401340A
:02400E00723FFF
:00000001FF
